:020000040800F2
:10000000000C00201D0200080F0300080B0300086D
:100010000D03000865020008B10800080000000098
:100020000000000000000000000000005107000870
:100030006702000800000000CD0100080908000860
:1000400037020008370200083702000837020008AC
:10005000370200083702000837020008370200089C
:10006000370200083702000837020008370200088C
:10007000370200083702000837020008370200087C
:10008000370200083702000837020008370200086C
:10009000370200083702000837020008370200085C
:1000A000370200083702000837020008370200084C
:1000B000370200083702000837020008370200083C
:1000C000370200083702000837020008370200082C
:1000D000370200083702000837020008370200081C
:1000E000370200083702000837020008370200080C
:1000F00037020008370200083702000837020008FC
:1001000037020008370200083702000837020008EB
:1001100037020008370200083702000837020008DB
:1001200037020008370200083702000837020008CB
:1001300037020008370200083702000837020008BB
:1001400037020008370200083702000837020008AB
:10015000370200083702000837020008370200089B
:10016000370200083702000837020008370200088B
:10017000370200083702000837020008370200087B
:100180003702000837020008DFF80CD000F058F8FA
:1001900000480047D1080008000C0020EFF3108051
:1001A00072B6704780F31088704716484FF0FF0111
:1001B0000170002080F3098813484FF080510160DE
:1001C00062B611484FF080510160704772B6EFF38C
:1001D000098028B1203880E8F00F0C4909680860D0
:1001E0000B480C490A78027008480B490A680260FB
:1001F000106890E8F00F203080F309884EF0040E6C
:1002000062B6704722ED00E004ED00E00800002037
:100210000100002002000020100000200648804756
:1002200006480047FEE7FEE7FEE7FEE7FEE7FEE7DB
:10023000FEE7FEE7FEE7FEE71D080008890100086B
:10024000064C074D06E0E06840F0010394E8070023
:1002500098471034AC42F6D3FFF79AFF540A0008CF
:10026000740A0008FEE77047F0B500230124032755
:100270000D6804FA03F21540954242D1D0F800C04F
:100280005E0007FA06F52CEA050CC0F800C091F8EC
:1002900004C0D0F800E00CFA06FC4CEA0E0CC0F8E2
:1002A00000C091F804C0BCF1010F02D0BCF1020FF4
:1002B0001FD1D0F808C02CEA050CC0F808C091F88E
:1002C00005C0D0F808E00CFA06FC4CEA0E0CC0F8A9
:1002D00008C0D0F804C02CEA020CC0F804C0426880
:1002E00091F806C00CFA03FC1FFA8CFC42EA0C02DF
:1002F0004260C268AA43C260CA79C568B2402A4354
:10030000C2605B1C102BB3D3F0BDFEE7FEE7704765
:100310000022224930B40A70CA7010460B1D1A54CC
:10032000401CC0B20228FAD34A708A701C480A6185
:1003300000F1200300248A604360641CE4B2203092
:1003400020330F2CF8D3426015484A6100F5007441
:10035000C86000F50270002344F8080B5B1CDBB298
:100360000830032BF8D30F4822608861203000F159
:100370001803002440F8183B641CE4B21833032C23
:10038000F8D3026007480F232030C861A0F5197226
:1003900030BC0021044800F049B8000000000020F3
:1003A00080050020800700207106000803490878B6
:1003B000FF2801D2401C0870704700000000002098
:1003C00070B5FFF7EBFE0D4C0546207820B1401EBE
:1003D00010F0FF0020700BD100F0F4F8A0786178E5
:1003E000884205D0064951F820002061FFF7E9FE58
:1003F0002846BDE87040FFF7D5BE00000000002091
:100400004005002010B500F0DDF80648064A817866
:10041000417052F8211001618160BDE81040FFF782
:10042000C4BE000000000020400500202DE9F0417E
:100430001C4615460E460746FFF7B0FE0C4951F81C
:10044000242022B1FFF7AEFE2820BDE8F081012272
:1004500041F82420FFF7A6FE2A463146384600F030
:1004600009F801462046BDE8F04100F0BBB80000A5
:10047000400500204FF080731360131F1860A2F135
:1004800008006FF001030360001F4FF01233036098
:10049000001F4FF003330360001F4FF0023303606F
:1004A000001F5B100360001F0160001F4FF011313F
:1004B0000160001F19010160001F4FF00931016048
:1004C000001FD9000160001F4FF007310160001FBD
:1004D0004FF006310160001F4FF0053101609800B8
:1004E00042F83C0D104670472DE9F0410F4C05468F
:1004F0002078002818D1002D16D0FFF74FFEA168F4
:100500000346261D887ECF7E325CBA43325403D127
:100510000A7FE0789043E0708D821846FFF742FE34
:10052000BDE8F04100F032B8BDE8F08100000020E5
:1005300070B5154D6C6923E0FFF730FEA18AE1B17B
:10054000491E0904090CA18217D1A17D4A0704D5CF
:1005500021F00401A175012100E00021E175A17DD8
:1005600009070AD4217FEA781143E970064AA17E7F
:10057000121DE67E535C334353546468FFF712FE4A
:10058000207E0F28D8D170BD0000002070B5FFF785
:1005900005FE0A4C0546207858B900F013F8A078FB
:1005A0006178884205D0064951F820002061FFF7A4
:1005B00008FE2846BDE87040FFF7F4BD00000020AB
:1005C000400500200649054A0B1DC878105C1B5CDD
:1005D000D25C02EBC000887070470000540900082C
:1005E000000000202DE9F0410F460646FFF7D6FD3A
:1005F0001D4DEC6894B36168E960FFF7D3FD276097
:1006000026760027A775F308E775A78206F007028C
:100610000121A37601FA03F0627620779140E1761A
:10062000E760FFF7BBFD0146104840F826406869C7
:10063000C4E9010700B184606C61207FEA7810434F
:10064000E8700948A27E001DE47E835C2343835446
:100650000846FFF7A7FD0020BDE8F081FFE7FFF7A0
:10066000A1FD4220F8E70000000000204005002026
:10067000FEE70000044A0029116801D0014300E0B0
:1006800081431160704700003038024070B5204A45
:100690001168204C11F00C0104D06610042903D01D
:1006A000082903D004601BE0066019E01849091FFF
:1006B0000B68C3F380550B6803F03F0315B1B6FB1D
:1006C000F3F301E0B4FBF3F30C680968C4F3881496
:1006D0006343C1F30141491C4900B3FBF1F10160DF
:1006E00011680F2303EA11110B4B5C5C0168E140B8
:1006F00041601468072505EA94241C5D21FA04F47E
:100700008460126805EA52329A5CD140C16070BDC3
:10071000083802400024F400200000201CB501210C
:100720002020FFF7A7FF4FF4C060009001208DF854
:10073000040002208DF8050000218DF806108DF8C8
:10074000070069460148FFF78FFD1CBD00140240F9
:10075000704700000CB500202749019000900A68FE
:1007600042F480320A604FF4A0430A6802F4003277
:100770000092019A521C0192009A12B9019A9A426F
:10078000F3D10A68920334D5012000901A48403012
:10079000026842F0805202601848026842F4404207
:1007A00002601548083002680260026842F40042A4
:1007B0000260026842F4A0520260031F104A1A60ED
:1007C0000A6842F080720A600A689201FCD50D4AFC
:1007D00040F205711160016821F0030101600168B8
:1007E00041F0020101600168C1F381010229FAD1DF
:1007F0000CBD00900CBD00000038024000700040AD
:1008000019544007003C024010B5FFF7CFFDFFF739
:100810008FFEBDE81040FFF7D3BD0000124810B5B1
:10082000016841F4700101601048016841F0010164
:1008300001600E4A00210832116002680C4B1A4018
:100840000260031D0B4A1A60026822F480220260D3
:1008500006480C300160FFF77DFF03494FF0006050
:100860008039086010BD000088ED00E000380240CB
:10087000FFFFF6FE103000240026084C4FF47A7576
:100880005FF00107C4F8A4622846FFF72DFEC4F804
:10089000A4722846FFF728FEF4E7000000804242D9
:1008A0006420FFF721FEFBE76420FFF71DFEFBE756
:1008B000FEE702E008C8121F08C1002AFAD17047FB
:1008C0007047002001E001C1121F002AFBD17047D0
:1008D00010B5FFF723FF1848FFF7D8FE16484FF46E
:1008E0007A714068B0FBF1F0401EB0F1807F0AD20F
:1008F0004FF0E0214861114AF02082F8140D0020E9
:10090000886107200861FFF703FD00230C4A1946A0
:100910000C48FFF78BFD01230B4A00210B48FFF722
:1009200085FD054A0223121F00210948FFF77EFDBD
:10093000FFF768FD002010BDF00300200FE000E08D
:100940006C01002079080008AC020020A108000812
:10095000A9080008000001000200010003000100D6
:100960000200010004000100020001000300010078
:100970000200010005000100020001000300010067
:100980000200010004000100020001000300010058
:100990000200010006000100020001000300010046
:1009A0000200010004000100020001000300010038
:1009B0000200010005000100020001000300010027
:1009C0000200010004000100020001000300010018
:1009D0000200010007000100020001000300010005
:1009E00002000100040001000200010003000100F8
:1009F00002000100050001000200010003000100E7
:100A000002000100040001000200010003000100D7
:100A100002000100060001000200010003000100C5
:100A200002000100040001000200010003000100B7
:100A300002000100050001000200010003000100A6
:100A40000200010004000100020001000300010097
:100A500002000100740A00080000002030000000BD
:100A6000B2080008A40A000830000020D00B0000E3
:100A7000C2080008000000000000000000000000A4
:100A80000000000000000000000000000000000066
:100A90000000000000000000010203040102030442
:040AA0000607080934
:040000050800018965
:00000001FF
